{
	"data": {
		"bytecode": {
			"linkReferences": {},
			"object": "60c06040523480156200001157600080fd5b5060405162001cd238038062001cd283398101604081905262000034916200009e565b600080546001600160a01b0319163390811782556040519091907f8be0079c531659141344cd1fd0a4f28419497f9722a3daafe3b4186f6b6457e0908290a36001600160601b0319606093841b811660805260069290925590911b1660a0526001600755620000fe565b600080600060608486031215620000b3578283fd5b8351620000c081620000e5565b602085015160408601519194509250620000da81620000e5565b809150509250925092565b6001600160a01b0381168114620000fb57600080fd5b50565b60805160601c60a05160601c611b8262000150600039806105a4528061063952806108ca528061095f5280610e51525080610f335280610fe452806110255280611197528061123f5250611b826000f3fe608060405234801561001057600080fd5b50600436106101515760003560e01c806369883b4e116100cd578063ac9e6d9211610081578063d63b3c4911610066578063d63b3c49146102aa578063e30c3978146102cb578063f7c618c1146102d357610151565b8063ac9e6d9214610284578063c1ea38681461029757610151565b80638da5cb5b116100b25780638da5cb5b146102455780638f10369a1461025a57806393f1a40b1461026257610151565b806369883b4e1461021f578063771602f71461023257610151565b806348e43af41161012457806351eb05a61161010957806351eb05a6146101d957806357a5b58c146101f957806366da58151461020c57610151565b806348e43af4146101be5780634e71e0c8146101d157610151565b8063078dfbe714610156578063081e3eda1461016b5780631526fe27146101895780631ab06ee5146101ab575b600080fd5b61016961016436600461148d565b6102db565b005b6101736103e4565b6040516101809190611adc565b60405180910390f35b61019c6101973660046115bb565b6103ea565b60405161018093929190611ab1565b6101696101b93660046116a2565b610422565b6101736101cc3660046115eb565b610514565b6101696107b6565b6101ec6101e73660046115bb565b610850565b6040516101809190611a77565b61016961020736600461150d565b610b80565b61016961021a3660046115bb565b610bb6565b61017361022d3660046115bb565b610c20565b6101696102403660046116a2565b610c3e565b61024d610e05565b6040516101809190611704565b610173610e14565b6102756102703660046115eb565b610e1a565b60405161018093929190611ae5565b61016961029236600461161a565b610e46565b6101696102a53660046114d7565b6110e7565b6102bd6102b836600461166b565b61116f565b604051610180929190611731565b61024d61122e565b61024d61123d565b6000546001600160a01b0316331461030e5760405162461bcd60e51b81526004016103059061190b565b60405180910390fd5b81156103b6576001600160a01b0383161515806103285750805b6103445760405162461bcd60e51b815260040161030590611866565b600080546040516001600160a01b03808716939216917f8be0079c531659141344cd1fd0a4f28419497f9722a3daafe3b4186f6b6457e091a3600080546001600160a01b03851673ffffffffffffffffffffffffffffffffffffffff19918216179091556001805490911690556103df565b6001805473ffffffffffffffffffffffffffffffffffffffff19166001600160a01b0385161790555b505050565b60035490565b6002602052600090815260409020546001600160801b0381169067ffffffffffffffff600160801b8204811691600160c01b90041683565b6000546001600160a01b0316331461044c5760405162461bcd60e51b81526004016103059061190b565b60008281526002602052604090205460055461048491839161047e91600160c01b900467ffffffffffffffff16611261565b9061128a565b600555610490816112ad565b60008381526002602052604090819020805467ffffffffffffffff93909316600160c01b0277ffffffffffffffffffffffffffffffffffffffffffffffff909316929092179091555182907f942cc7e17a17c164bd977f32ab8c54265d5b9d481e4e352bf874f1e568874e7c90610508908490611adc565b60405180910390a25050565b600061051e61146d565b506000838152600260209081526040808320815160608101835290546001600160801b03808216835267ffffffffffffffff600160801b8304811684870152600160c01b9092049091168284015287855260048085528386206001600160a01b03808a1688529552838620835194516378ed5d1f60e01b815293969095949092169391927f0000000000000000000000000000000000000000000000000000000000000000909216916378ed5d1f916105d9918b9101611adc565b60206040518083038186803b1580156105f157600080fd5b505afa158015610605573d6000803e3d6000fd5b505050506040513d601f19601f82011682018060405250810190610629919061159f565b6001600160a01b03166370a082317f00000000000000000000000000000000000000000000000000000000000000006040518263ffffffff1660e01b81526004016106749190611704565b60206040518083038186803b15801561068c57600080fd5b505afa1580156106a0573d6000803e3d6000fd5b505050506040513d601f19601f820116820180604052508101906106c491906115d3565b9050836020015167ffffffffffffffff16421180156106e257508015155b1561077057600061070a856020015167ffffffffffffffff164261126190919063ffffffff16565b9050600060055461073e876040015167ffffffffffffffff16610738600654866112db90919063ffffffff16565b906112db565b8161074557fe5b04905061076b8361075b8364e8d4a510006112db565b8161076257fe5b8691900461128a565b935050505b6107ab836002015461047e856001015464e8d4a5100061079d8789600001546112db90919063ffffffff16565b816107a457fe5b0490611261565b979650505050505050565b6001546001600160a01b03163381146107e15760405162461bcd60e51b81526004016103059061199d565b600080546040516001600160a01b03808516939216917f8be0079c531659141344cd1fd0a4f28419497f9722a3daafe3b4186f6b6457e091a3600080546001600160a01b0390921673ffffffffffffffffffffffffffffffffffffffff19928316179055600180549091169055565b61085861146d565b50600081815260026020908152604091829020825160608101845290546001600160801b038116825267ffffffffffffffff600160801b82048116938301849052600160c01b9091041692810192909252421115610b7b576040516378ed5d1f60e01b81526000906001600160a01b037f000000000000000000000000000000000000000000000000000000000000000016906378ed5d1f906108ff908690600401611adc565b60206040518083038186803b15801561091757600080fd5b505afa15801561092b573d6000803e3d6000fd5b505050506040513d601f19601f8201168201806040525081019061094f919061159f565b6001600160a01b03166370a082317f00000000000000000000000000000000000000000000000000000000000000006040518263ffffffff1660e01b815260040161099a9190611704565b60206040518083038186803b1580156109b257600080fd5b505afa1580156109c6573d6000803e3d6000fd5b505050506040513d601f19601f820116820180604052508101906109ea91906115d3565b90508015610a8f576000610a15836020015167ffffffffffffffff164261126190919063ffffffff16565b90506000600554610a43856040015167ffffffffffffffff16610738600654866112db90919063ffffffff16565b81610a4a57fe5b049050610a81610a7084610a638464e8d4a510006112db565b81610a6a57fe5b04611312565b85516001600160801b03169061133b565b6001600160801b0316845250505b610a98426112ad565b67ffffffffffffffff908116602084810191825260008681526002909152604090819020855181549351838801516fffffffffffffffffffffffffffffffff199095166001600160801b038316177fffffffffffffffff0000000000000000ffffffffffffffffffffffffffffffff16600160801b828816021777ffffffffffffffffffffffffffffffffffffffffffffffff16600160c01b95909616949094029490941790555185927f0fc9545022a542541ad085d091fb09a2ab36fee366a4576ab63714ea907ad35392610b719290918691611afb565b60405180910390a2505b919050565b8060005b81811015610bb057610ba7848483818110610b9b57fe5b90506020020135610850565b50600101610b84565b50505050565b6000546001600160a01b03163314610be05760405162461bcd60e51b81526004016103059061190b565b60068190556040517fde89cb17ac7f58f94792b3e91e086ed85403819c24ceea882491f960ccb1a27890610c15908390611adc565b60405180910390a150565b60038181548110610c2d57fe5b600091825260209091200154905081565b6000546001600160a01b03163314610c685760405162461bcd60e51b81526004016103059061190b565b600081815260026020526040902054600160801b900467ffffffffffffffff1615610ca55760405162461bcd60e51b8152600401610305906117f8565b6005544290610cb4908461128a565b60055560408051606081019091526000815260208101610cd3836112ad565b67ffffffffffffffff168152602001610ceb856112ad565b67ffffffffffffffff90811690915260008481526002602090815260408083208551815493870151968301518616600160c01b0277ffffffffffffffffffffffffffffffffffffffffffffffff97909616600160801b027fffffffffffffffff0000000000000000ffffffffffffffffffffffffffffffff6001600160801b039092166fffffffffffffffffffffffffffffffff1990951694909417169290921794909416929092179091556003805460018101825591527fc2575a0e9e593c00f959f8c92f12db2869c3395a3b0502d05e2516446f71f85b018390555182907f38410508059921573ab9ebdca2a5034be738d236366b8f32de4434ea95ed3c8190610df8908690611adc565b60405180910390a2505050565b6000546001600160a01b031681565b60065481565b600460209081526000928352604080842090915290825290208054600182015460029092015490919083565b336001600160a01b037f00000000000000000000000000000000000000000000000000000000000000001614610e8e5760405162461bcd60e51b815260040161030590611940565b600754600114610eb05760405162461bcd60e51b815260040161030590611a09565b6002600755610ebd61146d565b610ec686610850565b60008781526004602090815260408083206001600160a01b038a16845290915281208054929350911561105657610f2d826002015461047e846001015464e8d4a5100061079d88600001516001600160801b031688600001546112db90919063ffffffff16565b905060007f00000000000000000000000000000000000000000000000000000000000000006001600160a01b03166370a08231306040518263ffffffff1660e01b8152600401610f7d9190611704565b60206040518083038186803b158015610f9557600080fd5b505afa158015610fa9573d6000803e3d6000fd5b505050506040513d601f19601f82011682018060405250810190610fcd91906115d3565b9050808211156110185761100b6001600160a01b037f000000000000000000000000000000000000000000000000000000000000000016888361136a565b8082036002840155611054565b61104c6001600160a01b037f000000000000000000000000000000000000000000000000000000000000000016888461136a565b600060028401555b505b838255825164e8d4a51000906110769086906001600160801b03166112db565b8161107d57fe5b048260010181905550856001600160a01b031688886001600160a01b03167f2ece88ca2bc08dd018db50e1d25a20bf1241e5fab1c396caa51f01a54bd2f75b856002015485036040516110d09190611adc565b60405180910390a450506001600755505050505050565b6000546001600160a01b031633146111115760405162461bcd60e51b81526004016103059061190b565b6001600160a01b03831661115b576040516001600160a01b0382169083156108fc029084906000818181858888f19350505050158015611155573d6000803e3d6000fd5b506103df565b6103df6001600160a01b038416828461136a565b60408051600180825281830190925260609182918291602080830190803683370190505090507f0000000000000000000000000000000000000000000000000000000000000000816000815181106111c357fe5b6001600160a01b03929092166020928302919091019091015260408051600180825281830190925260609181602001602082028036833701905050905061120a8787610514565b8160008151811061121757fe5b602090810291909101015290969095509350505050565b6001546001600160a01b031681565b7f000000000000000000000000000000000000000000000000000000000000000081565b808203828111156112845760405162461bcd60e51b8152600401610305906117c1565b92915050565b818101818110156112845760405162461bcd60e51b8152600401610305906118d4565b600067ffffffffffffffff8211156112d75760405162461bcd60e51b8152600401610305906119d2565b5090565b60008115806112f6575050808202828282816112f357fe5b04145b6112845760405162461bcd60e51b815260040161030590611a40565b60006001600160801b038211156112d75760405162461bcd60e51b81526004016103059061189d565b8181016001600160801b0380831690821610156112845760405162461bcd60e51b8152600401610305906118d4565b60006060846001600160a01b031663a9059cbb8585604051602401611390929190611718565b6040516020818303038152906040529060e01b6020820180517bffffffffffffffffffffffffffffffffffffffffffffffffffffffff83818316178352505050506040516113de91906116cb565b6000604051808303816000865af19150503d806000811461141b576040519150601f19603f3d011682016040523d82523d6000602084013e611420565b606091505b509150915081801561144a57508051158061144a57508080602001905181019061144a919061157c565b6114665760405162461bcd60e51b81526004016103059061182f565b5050505050565b604080516060810182526000808252602082018190529181019190915290565b6000806000606084860312156114a1578283fd5b83356114ac81611b26565b925060208401356114bc81611b3e565b915060408401356114cc81611b3e565b809150509250925092565b6000806000606084860312156114eb578283fd5b83356114f681611b26565b92506020840135915060408401356114cc81611b26565b6000806020838503121561151f578182fd5b823567ffffffffffffffff80821115611536578384fd5b818501915085601f830112611549578384fd5b813581811115611557578485fd5b866020808302850101111561156a578485fd5b60209290920196919550909350505050565b60006020828403121561158d578081fd5b815161159881611b3e565b9392505050565b6000602082840312156115b0578081fd5b815161159881611b26565b6000602082840312156115cc578081fd5b5035919050565b6000602082840312156115e4578081fd5b5051919050565b600080604083850312156115fd578182fd5b82359150602083013561160f81611b26565b809150509250929050565b600080600080600060a08688031215611631578081fd5b85359450602086013561164381611b26565b9350604086013561165381611b26565b94979396509394606081013594506080013592915050565b60008060006060848603121561167f578283fd5b83359250602084013561169181611b26565b929592945050506040919091013590565b600080604083850312156116b4578182fd5b50508035926020909101359150565b815260200190565b60008251815b818110156116eb57602081860181015185830152016116d1565b818111156116f95782828501525b509190910192915050565b6001600160a01b0391909116815260200190565b6001600160a01b03929092168252602082015260400190565b604080825283519082018190526000906020906060840190828701845b828110156117735781516001600160a01b03168452928401929084019060010161174e565b5050508381038285015280855161178a8184611adc565b91508387019250845b818110156117b4576117a68385516116c3565b938501939250600101611793565b5090979650505050505050565b60208082526015908201527f426f72696e674d6174683a20556e646572666c6f770000000000000000000000604082015260600190565b60208082526013908201527f506f6f6c20616c72656164792065786973747300000000000000000000000000604082015260600190565b6020808252601c908201527f426f72696e6745524332303a205472616e73666572206661696c656400000000604082015260600190565b60208082526015908201527f4f776e61626c653a207a65726f20616464726573730000000000000000000000604082015260600190565b6020808252601c908201527f426f72696e674d6174683a2075696e74313238204f766572666c6f7700000000604082015260600190565b60208082526018908201527f426f72696e674d6174683a20416464204f766572666c6f770000000000000000604082015260600190565b6020808252818101527f4f776e61626c653a2063616c6c6572206973206e6f7420746865206f776e6572604082015260600190565b60208082526021908201527f4f6e6c7920636865662063616e2063616c6c20746869732066756e6374696f6e60408201527f2e00000000000000000000000000000000000000000000000000000000000000606082015260800190565b6020808252818101527f4f776e61626c653a2063616c6c657220213d2070656e64696e67206f776e6572604082015260600190565b6020808252601b908201527f426f72696e674d6174683a2075696e743634204f766572666c6f770000000000604082015260600190565b60208082526006908201527f4c4f434b45440000000000000000000000000000000000000000000000000000604082015260600190565b60208082526018908201527f426f72696e674d6174683a204d756c204f766572666c6f770000000000000000604082015260600190565b81516001600160801b0316815260208083015167ffffffffffffffff90811691830191909152604092830151169181019190915260600190565b6001600160801b0393909316835267ffffffffffffffff918216602084015216604082015260600190565b90815260200190565b9283526020830191909152604082015260600190565b67ffffffffffffffff93909316835260208301919091526001600160801b0316604082015260600190565b6001600160a01b0381168114611b3b57600080fd5b50565b8015158114611b3b57600080fdfea26469706673582212206f740f7a50aa3e77061bfafb66c0b26b2b69a7d9d1c99c5a7e09e6af76692e7064736f6c634300060c0033",
			"opcodes": "PUSH1 0xC0 PUSH1 0x40 MSTORE CALLVALUE DUP1 ISZERO PUSH3 0x11 JUMPI PUSH1 0x0 DUP1 REVERT JUMPDEST POP PUSH1 0x40 MLOAD PUSH3 0x1CD2 CODESIZE SUB DUP1 PUSH3 0x1CD2 DUP4 CODECOPY DUP2 ADD PUSH1 0x40 DUP2 SWAP1 MSTORE PUSH3 0x34 SWAP2 PUSH3 0x9E JUMP JUMPDEST PUSH1 0x0 DUP1 SLOAD PUSH1 0x1 PUSH1 0x1 PUSH1 0xA0 SHL SUB NOT AND CALLER SWAP1 DUP2 OR DUP3 SSTORE PUSH1 0x40 MLOAD SWAP1 SWAP2 SWAP1 PUSH32 0x8BE0079C531659141344CD1FD0A4F28419497F9722A3DAAFE3B4186F6B6457E0 SWAP1 DUP3 SWAP1 LOG3 PUSH1 0x1 PUSH1 0x1 PUSH1 0x60 SHL SUB NOT PUSH1 0x60 SWAP4 DUP5 SHL DUP2 AND PUSH1 0x80 MSTORE PUSH1 0x6 SWAP3 SWAP1 SWAP3 SSTORE SWAP1 SWAP2 SHL AND PUSH1 0xA0 MSTORE PUSH1 0x1 PUSH1 0x7 SSTORE PUSH3 0xFE JUMP JUMPDEST PUSH1 0x0 DUP1 PUSH1 0x0 PUSH1 0x60 DUP5 DUP7 SUB SLT ISZERO PUSH3 0xB3 JUMPI DUP3 DUP4 REVERT JUMPDEST DUP4 MLOAD PUSH3 0xC0 DUP2 PUSH3 0xE5 JUMP JUMPDEST PUSH1 0x20 DUP6 ADD MLOAD PUSH1 0x40 DUP7 ADD MLOAD SWAP2 SWAP5 POP SWAP3 POP PUSH3 0xDA DUP2 PUSH3 0xE5 JUMP JUMPDEST DUP1 SWAP2 POP POP SWAP3 POP SWAP3 POP SWAP3 JUMP JUMPDEST PUSH1 0x1 PUSH1 0x1 PUSH1 0xA0 SHL SUB DUP2 AND DUP2 EQ PUSH3 0xFB JUMPI PUSH1 0x0 DUP1 REVERT JUMPDEST POP JUMP JUMPDEST PUSH1 0x80 MLOAD PUSH1 0x60 SHR PUSH1 0xA0 MLOAD PUSH1 0x60 SHR PUSH2 0x1B82 PUSH3 0x150 PUSH1 0x0 CODECOPY DUP1 PUSH2 0x5A4 MSTORE DUP1 PUSH2 0x639 MSTORE DUP1 PUSH2 0x8CA MSTORE DUP1 PUSH2 0x95F MSTORE DUP1 PUSH2 0xE51 MSTORE POP DUP1 PUSH2 0xF33 MSTORE DUP1 PUSH2 0xFE4 MSTORE DUP1 PUSH2 0x1025 MSTORE DUP1 PUSH2 0x1197 MSTORE DUP1 PUSH2 0x123F MSTORE POP PUSH2 0x1B82 PUSH1 0x0 RETURN INVALID PUSH1 0x80 PUSH1 0x40 MSTORE CALLVALUE DUP1 ISZERO PUSH2 0x10 JUMPI PUSH1 0x0 DUP1 REVERT JUMPDEST POP PUSH1 0x4 CALLDATASIZE LT PUSH2 0x151 JUMPI PUSH1 0x0 CALLDATALOAD PUSH1 0xE0 SHR DUP1 PUSH4 0x69883B4E GT PUSH2 0xCD JUMPI DUP1 PUSH4 0xAC9E6D92 GT PUSH2 0x81 JUMPI DUP1 PUSH4 0xD63B3C49 GT PUSH2 0x66 JUMPI DUP1 PUSH4 0xD63B3C49 EQ PUSH2 0x2AA JUMPI DUP1 PUSH4 0xE30C3978 EQ PUSH2 0x2CB JUMPI DUP1 PUSH4 0xF7C618C1 EQ PUSH2 0x2D3 JUMPI PUSH2 0x151 JUMP JUMPDEST DUP1 PUSH4 0xAC9E6D92 EQ PUSH2 0x284 JUMPI DUP1 PUSH4 0xC1EA3868 EQ PUSH2 0x297 JUMPI PUSH2 0x151 JUMP JUMPDEST DUP1 PUSH4 0x8DA5CB5B GT PUSH2 0xB2 JUMPI DUP1 PUSH4 0x8DA5CB5B EQ PUSH2 0x245 JUMPI DUP1 PUSH4 0x8F10369A EQ PUSH2 0x25A JUMPI DUP1 PUSH4 0x93F1A40B EQ PUSH2 0x262 JUMPI PUSH2 0x151 JUMP JUMPDEST DUP1 PUSH4 0x69883B4E EQ PUSH2 0x21F JUMPI DUP1 PUSH4 0x771602F7 EQ PUSH2 0x232 JUMPI PUSH2 0x151 JUMP JUMPDEST DUP1 PUSH4 0x48E43AF4 GT PUSH2 0x124 JUMPI DUP1 PUSH4 0x51EB05A6 GT PUSH2 0x109 JUMPI DUP1 PUSH4 0x51EB05A6 EQ PUSH2 0x1D9 JUMPI DUP1 PUSH4 0x57A5B58C EQ PUSH2 0x1F9 JUMPI DUP1 PUSH4 0x66DA5815 EQ PUSH2 0x20C JUMPI PUSH2 0x151 JUMP JUMPDEST DUP1 PUSH4 0x48E43AF4 EQ PUSH2 0x1BE JUMPI DUP1 PUSH4 0x4E71E0C8 EQ PUSH2 0x1D1 JUMPI PUSH2 0x151 JUMP JUMPDEST DUP1 PUSH4 0x78DFBE7 EQ PUSH2 0x156 JUMPI DUP1 PUSH4 0x81E3EDA EQ PUSH2 0x16B JUMPI DUP1 PUSH4 0x1526FE27 EQ PUSH2 0x189 JUMPI DUP1 PUSH4 0x1AB06EE5 EQ PUSH2 0x1AB JUMPI JUMPDEST PUSH1 0x0 DUP1 REVERT JUMPDEST PUSH2 0x169 PUSH2 0x164 CALLDATASIZE PUSH1 0x4 PUSH2 0x148D JUMP JUMPDEST PUSH2 0x2DB JUMP JUMPDEST STOP JUMPDEST PUSH2 0x173 PUSH2 0x3E4 JUMP JUMPDEST PUSH1 0x40 MLOAD PUSH2 0x180 SWAP2 SWAP1 PUSH2 0x1ADC JUMP JUMPDEST PUSH1 0x40 MLOAD DUP1 SWAP2 SUB SWAP1 RETURN JUMPDEST PUSH2 0x19C PUSH2 0x197 CALLDATASIZE PUSH1 0x4 PUSH2 0x15BB JUMP JUMPDEST PUSH2 0x3EA JUMP JUMPDEST PUSH1 0x40 MLOAD PUSH2 0x180 SWAP4 SWAP3 SWAP2 SWAP1 PUSH2 0x1AB1 JUMP JUMPDEST PUSH2 0x169 PUSH2 0x1B9 CALLDATASIZE PUSH1 0x4 PUSH2 0x16A2 JUMP JUMPDEST PUSH2 0x422 JUMP JUMPDEST PUSH2 0x173 PUSH2 0x1CC CALLDATASIZE PUSH1 0x4 PUSH2 0x15EB JUMP JUMPDEST PUSH2 0x514 JUMP JUMPDEST PUSH2 0x169 PUSH2 0x7B6 JUMP JUMPDEST PUSH2 0x1EC PUSH2 0x1E7 CALLDATASIZE PUSH1 0x4 PUSH2 0x15BB JUMP JUMPDEST PUSH2 0x850 JUMP JUMPDEST PUSH1 0x40 MLOAD PUSH2 0x180 SWAP2 SWAP1 PUSH2 0x1A77 JUMP JUMPDEST PUSH2 0x169 PUSH2 0x207 CALLDATASIZE PUSH1 0x4 PUSH2 0x150D JUMP JUMPDEST PUSH2 0xB80 JUMP JUMPDEST PUSH2 0x169 PUSH2 0x21A CALLDATASIZE PUSH1 0x4 PUSH2 0x15BB JUMP JUMPDEST PUSH2 0xBB6 JUMP JUMPDEST PUSH2 0x173 PUSH2 0x22D CALLDATASIZE PUSH1 0x4 PUSH2 0x15BB JUMP JUMPDEST PUSH2 0xC20 JUMP JUMPDEST PUSH2 0x169 PUSH2 0x240 CALLDATASIZE PUSH1 0x4 PUSH2 0x16A2 JUMP JUMPDEST PUSH2 0xC3E JUMP JUMPDEST PUSH2 0x24D PUSH2 0xE05 JUMP JUMPDEST PUSH1 0x40 MLOAD PUSH2 0x180 SWAP2 SWAP1 PUSH2 0x1704 JUMP JUMPDEST PUSH2 0x173 PUSH2 0xE14 JUMP JUMPDEST PUSH2 0x275 PUSH2 0x270 CALLDATASIZE PUSH1 0x4 PUSH2 0x15EB JUMP JUMPDEST PUSH2 0xE1A JUMP JUMPDEST PUSH1 0x40 MLOAD PUSH2 0x180 SWAP4 SWAP3 SWAP2 SWAP1 PUSH2 0x1AE5 JUMP JUMPDEST PUSH2 0x169 PUSH2 0x292 CALLDATASIZE PUSH1 0x4 PUSH2 0x161A JUMP JUMPDEST PUSH2 0xE46 JUMP JUMPDEST PUSH2 0x169 PUSH2 0x2A5 CALLDATASIZE PUSH1 0x4 PUSH2 0x14D7 JUMP JUMPDEST PUSH2 0x10E7 JUMP JUMPDEST PUSH2 0x2BD PUSH2 0x2B8 CALLDATASIZE PUSH1 0x4 PUSH2 0x166B JUMP JUMPDEST PUSH2 0x116F JUMP JUMPDEST PUSH1 0x40 MLOAD PUSH2 0x180 SWAP3 SWAP2 SWAP1 PUSH2 0x1731 JUMP JUMPDEST PUSH2 0x24D PUSH2 0x122E JUMP JUMPDEST PUSH2 0x24D PUSH2 0x123D JUMP JUMPDEST PUSH1 0x0 SLOAD PUSH1 0x1 PUSH1 0x1 PUSH1 0xA0 SHL SUB AND CALLER EQ PUSH2 0x30E JUMPI PUSH1 0x40 MLOAD PUSH3 0x461BCD PUSH1 0xE5 SHL DUP2 MSTORE PUSH1 0x4 ADD PUSH2 0x305 SWAP1 PUSH2 0x190B JUMP JUMPDEST PUSH1 0x40 MLOAD DUP1 SWAP2 SUB SWAP1 REVERT JUMPDEST DUP2 ISZERO PUSH2 0x3B6 JUMPI PUSH1 0x1 PUSH1 0x1 PUSH1 0xA0 SHL SUB DUP4 AND ISZERO ISZERO DUP1 PUSH2 0x328 JUMPI POP DUP1 JUMPDEST PUSH2 0x344 JUMPI PUSH1 0x40 MLOAD PUSH3 0x461BCD PUSH1 0xE5 SHL DUP2 MSTORE PUSH1 0x4 ADD PUSH2 0x305 SWAP1 PUSH2 0x1866 JUMP JUMPDEST PUSH1 0x0 DUP1 SLOAD PUSH1 0x40 MLOAD PUSH1 0x1 PUSH1 0x1 PUSH1 0xA0 SHL SUB DUP1 DUP8 AND SWAP4 SWAP3 AND SWAP2 PUSH32 0x8BE0079C531659141344CD1FD0A4F28419497F9722A3DAAFE3B4186F6B6457E0 SWAP2 LOG3 PUSH1 0x0 DUP1 SLOAD PUSH1 0x1 PUSH1 0x1 PUSH1 0xA0 SHL SUB DUP6 AND PUSH20 0xFFFFFFFFFFFFFFFFFFFFFFFFFFFFFFFFFFFFFFFF NOT SWAP2 DUP3 AND OR SWAP1 SWAP2 SSTORE PUSH1 0x1 DUP1 SLOAD SWAP1 SWAP2 AND SWAP1 SSTORE PUSH2 0x3DF JUMP JUMPDEST PUSH1 0x1 DUP1 SLOAD PUSH20 0xFFFFFFFFFFFFFFFFFFFFFFFFFFFFFFFFFFFFFFFF NOT AND PUSH1 0x1 PUSH1 0x1 PUSH1 0xA0 SHL SUB DUP6 AND OR SWAP1 SSTORE JUMPDEST POP POP POP JUMP JUMPDEST PUSH1 0x3 SLOAD SWAP1 JUMP JUMPDEST PUSH1 0x2 PUSH1 0x20 MSTORE PUSH1 0x0 SWAP1 DUP2 MSTORE PUSH1 0x40 SWAP1 KECCAK256 SLOAD PUSH1 0x1 PUSH1 0x1 PUSH1 0x80 SHL SUB DUP2 AND SWAP1 PUSH8 0xFFFFFFFFFFFFFFFF PUSH1 0x1 PUSH1 0x80 SHL DUP3 DIV DUP2 AND SWAP2 PUSH1 0x1 PUSH1 0xC0 SHL SWAP1 DIV AND DUP4 JUMP JUMPDEST PUSH1 0x0 SLOAD PUSH1 0x1 PUSH1 0x1 PUSH1 0xA0 SHL SUB AND CALLER EQ PUSH2 0x44C JUMPI PUSH1 0x40 MLOAD PUSH3 0x461BCD PUSH1 0xE5 SHL DUP2 MSTORE PUSH1 0x4 ADD PUSH2 0x305 SWAP1 PUSH2 0x190B JUMP JUMPDEST PUSH1 0x0 DUP3 DUP2 MSTORE PUSH1 0x2 PUSH1 0x20 MSTORE PUSH1 0x40 SWAP1 KECCAK256 SLOAD PUSH1 0x5 SLOAD PUSH2 0x484 SWAP2 DUP4 SWAP2 PUSH2 0x47E SWAP2 PUSH1 0x1 PUSH1 0xC0 SHL SWAP1 DIV PUSH8 0xFFFFFFFFFFFFFFFF AND PUSH2 0x1261 JUMP JUMPDEST SWAP1 PUSH2 0x128A JUMP JUMPDEST PUSH1 0x5 SSTORE PUSH2 0x490 DUP2 PUSH2 0x12AD JUMP JUMPDEST PUSH1 0x0 DUP4 DUP2 MSTORE PUSH1 0x2 PUSH1 0x20 MSTORE PUSH1 0x40 SWAP1 DUP2 SWAP1 KECCAK256 DUP1 SLOAD PUSH8 0xFFFFFFFFFFFFFFFF SWAP4 SWAP1 SWAP4 AND PUSH1 0x1 PUSH1 0xC0 SHL MUL PUSH24 0xFFFFFFFFFFFFFFFFFFFFFFFFFFFFFFFFFFFFFFFFFFFFFFFF SWAP1 SWAP4 AND SWAP3 SWAP1 SWAP3 OR SWAP1 SWAP2 SSTORE MLOAD DUP3 SWAP1 PUSH32 0x942CC7E17A17C164BD977F32AB8C54265D5B9D481E4E352BF874F1E568874E7C SWAP1 PUSH2 0x508 SWAP1 DUP5 SWAP1 PUSH2 0x1ADC JUMP JUMPDEST PUSH1 0x40 MLOAD DUP1 SWAP2 SUB SWAP1 LOG2 POP POP JUMP JUMPDEST PUSH1 0x0 PUSH2 0x51E PUSH2 0x146D JUMP JUMPDEST POP PUSH1 0x0 DUP4 DUP2 MSTORE PUSH1 0x2 PUSH1 0x20 SWAP1 DUP2 MSTORE PUSH1 0x40 DUP1 DUP4 KECCAK256 DUP2 MLOAD PUSH1 0x60 DUP2 ADD DUP4 MSTORE SWAP1 SLOAD PUSH1 0x1 PUSH1 0x1 PUSH1 0x80 SHL SUB DUP1 DUP3 AND DUP4 MSTORE PUSH8 0xFFFFFFFFFFFFFFFF PUSH1 0x1 PUSH1 0x80 SHL DUP4 DIV DUP2 AND DUP5 DUP8 ADD MSTORE PUSH1 0x1 PUSH1 0xC0 SHL SWAP1 SWAP3 DIV SWAP1 SWAP2 AND DUP3 DUP5 ADD MSTORE DUP8 DUP6 MSTORE PUSH1 0x4 DUP1 DUP6 MSTORE DUP4 DUP7 KECCAK256 PUSH1 0x1 PUSH1 0x1 PUSH1 0xA0 SHL SUB DUP1 DUP11 AND DUP9 MSTORE SWAP6 MSTORE DUP4 DUP7 KECCAK256 DUP4 MLOAD SWAP5 MLOAD PUSH4 0x78ED5D1F PUSH1 0xE0 SHL DUP2 MSTORE SWAP4 SWAP7 SWAP1 SWAP6 SWAP5 SWAP1 SWAP3 AND SWAP4 SWAP2 SWAP3 PUSH32 0x0 SWAP1 SWAP3 AND SWAP2 PUSH4 0x78ED5D1F SWAP2 PUSH2 0x5D9 SWAP2 DUP12 SWAP2 ADD PUSH2 0x1ADC JUMP JUMPDEST PUSH1 0x20 PUSH1 0x40 MLOAD DUP1 DUP4 SUB DUP2 DUP7 DUP1 EXTCODESIZE ISZERO DUP1 ISZERO PUSH2 0x5F1 JUMPI PUSH1 0x0 DUP1 REVERT JUMPDEST POP GAS STATICCALL ISZERO DUP1 ISZERO PUSH2 0x605 JUMPI RETURNDATASIZE PUSH1 0x0 DUP1 RETURNDATACOPY RETURNDATASIZE PUSH1 0x0 REVERT JUMPDEST POP POP POP POP PUSH1 0x40 MLOAD RETURNDATASIZE PUSH1 0x1F NOT PUSH1 0x1F DUP3 ADD AND DUP3 ADD DUP1 PUSH1 0x40 MSTORE POP DUP2 ADD SWAP1 PUSH2 0x629 SWAP2 SWAP1 PUSH2 0x159F JUMP JUMPDEST PUSH1 0x1 PUSH1 0x1 PUSH1 0xA0 SHL SUB AND PUSH4 0x70A08231 PUSH32 0x0 PUSH1 0x40 MLOAD DUP3 PUSH4 0xFFFFFFFF AND PUSH1 0xE0 SHL DUP2 MSTORE PUSH1 0x4 ADD PUSH2 0x674 SWAP2 SWAP1 PUSH2 0x1704 JUMP JUMPDEST PUSH1 0x20 PUSH1 0x40 MLOAD DUP1 DUP4 SUB DUP2 DUP7 DUP1 EXTCODESIZE ISZERO DUP1 ISZERO PUSH2 0x68C JUMPI PUSH1 0x0 DUP1 REVERT JUMPDEST POP GAS STATICCALL ISZERO DUP1 ISZERO PUSH2 0x6A0 JUMPI RETURNDATASIZE PUSH1 0x0 DUP1 RETURNDATACOPY RETURNDATASIZE PUSH1 0x0 REVERT JUMPDEST POP POP POP POP PUSH1 0x40 MLOAD RETURNDATASIZE PUSH1 0x1F NOT PUSH1 0x1F DUP3 ADD AND DUP3 ADD DUP1 PUSH1 0x40 MSTORE POP DUP2 ADD SWAP1 PUSH2 0x6C4 SWAP2 SWAP1 PUSH2 0x15D3 JUMP JUMPDEST SWAP1 POP DUP4 PUSH1 0x20 ADD MLOAD PUSH8 0xFFFFFFFFFFFFFFFF AND TIMESTAMP GT DUP1 ISZERO PUSH2 0x6E2 JUMPI POP DUP1 ISZERO ISZERO JUMPDEST ISZERO PUSH2 0x770 JUMPI PUSH1 0x0 PUSH2 0x70A DUP6 PUSH1 0x20 ADD MLOAD PUSH8 0xFFFFFFFFFFFFFFFF AND TIMESTAMP PUSH2 0x1261 SWAP1 SWAP2 SWAP1 PUSH4 0xFFFFFFFF AND JUMP JUMPDEST SWAP1 POP PUSH1 0x0 PUSH1 0x5 SLOAD PUSH2 0x73E DUP8 PUSH1 0x40 ADD MLOAD PUSH8 0xFFFFFFFFFFFFFFFF AND PUSH2 0x738 PUSH1 0x6 SLOAD DUP7 PUSH2 0x12DB SWAP1 SWAP2 SWAP1 PUSH4 0xFFFFFFFF AND JUMP JUMPDEST SWAP1 PUSH2 0x12DB JUMP JUMPDEST DUP2 PUSH2 0x745 JUMPI INVALID JUMPDEST DIV SWAP1 POP PUSH2 0x76B DUP4 PUSH2 0x75B DUP4 PUSH5 0xE8D4A51000 PUSH2 0x12DB JUMP JUMPDEST DUP2 PUSH2 0x762 JUMPI INVALID JUMPDEST DUP7 SWAP2 SWAP1 DIV PUSH2 0x128A JUMP JUMPDEST SWAP4 POP POP POP JUMPDEST PUSH2 0x7AB DUP4 PUSH1 0x2 ADD SLOAD PUSH2 0x47E DUP6 PUSH1 0x1 ADD SLOAD PUSH5 0xE8D4A51000 PUSH2 0x79D DUP8 DUP10 PUSH1 0x0 ADD SLOAD PUSH2 0x12DB SWAP1 SWAP2 SWAP1 PUSH4 0xFFFFFFFF AND JUMP JUMPDEST DUP2 PUSH2 0x7A4 JUMPI INVALID JUMPDEST DIV SWAP1 PUSH2 0x1261 JUMP JUMPDEST SWAP8 SWAP7 POP POP POP POP POP POP POP JUMP JUMPDEST PUSH1 0x1 SLOAD PUSH1 0x1 PUSH1 0x1 PUSH1 0xA0 SHL SUB AND CALLER DUP2 EQ PUSH2 0x7E1 JUMPI PUSH1 0x40 MLOAD PUSH3 0x461BCD PUSH1 0xE5 SHL DUP2 MSTORE PUSH1 0x4 ADD PUSH2 0x305 SWAP1 PUSH2 0x199D JUMP JUMPDEST PUSH1 0x0 DUP1 SLOAD PUSH1 0x40 MLOAD PUSH1 0x1 PUSH1 0x1 PUSH1 0xA0 SHL SUB DUP1 DUP6 AND SWAP4 SWAP3 AND SWAP2 PUSH32 0x8BE0079C531659141344CD1FD0A4F28419497F9722A3DAAFE3B4186F6B6457E0 SWAP2 LOG3 PUSH1 0x0 DUP1 SLOAD PUSH1 0x1 PUSH1 0x1 PUSH1 0xA0 SHL SUB SWAP1 SWAP3 AND PUSH20 0xFFFFFFFFFFFFFFFFFFFFFFFFFFFFFFFFFFFFFFFF NOT SWAP3 DUP4 AND OR SWAP1 SSTORE PUSH1 0x1 DUP1 SLOAD SWAP1 SWAP2 AND SWAP1 SSTORE JUMP JUMPDEST PUSH2 0x858 PUSH2 0x146D JUMP JUMPDEST POP PUSH1 0x0 DUP2 DUP2 MSTORE PUSH1 0x2 PUSH1 0x20 SWAP1 DUP2 MSTORE PUSH1 0x40 SWAP2 DUP3 SWAP1 KECCAK256 DUP3 MLOAD PUSH1 0x60 DUP2 ADD DUP5 MSTORE SWAP1 SLOAD PUSH1 0x1 PUSH1 0x1 PUSH1 0x80 SHL SUB DUP2 AND DUP3 MSTORE PUSH8 0xFFFFFFFFFFFFFFFF PUSH1 0x1 PUSH1 0x80 SHL DUP3 DIV DUP2 AND SWAP4 DUP4 ADD DUP5 SWAP1 MSTORE PUSH1 0x1 PUSH1 0xC0 SHL SWAP1 SWAP2 DIV AND SWAP3 DUP2 ADD SWAP3 SWAP1 SWAP3 MSTORE TIMESTAMP GT ISZERO PUSH2 0xB7B JUMPI PUSH1 0x40 MLOAD PUSH4 0x78ED5D1F PUSH1 0xE0 SHL DUP2 MSTORE PUSH1 0x0 SWAP1 PUSH1 0x1 PUSH1 0x1 PUSH1 0xA0 SHL SUB PUSH32 0x0 AND SWAP1 PUSH4 0x78ED5D1F SWAP1 PUSH2 0x8FF SWAP1 DUP7 SWAP1 PUSH1 0x4 ADD PUSH2 0x1ADC JUMP JUMPDEST PUSH1 0x20 PUSH1 0x40 MLOAD DUP1 DUP4 SUB DUP2 DUP7 DUP1 EXTCODESIZE ISZERO DUP1 ISZERO PUSH2 0x917 JUMPI PUSH1 0x0 DUP1 REVERT JUMPDEST POP GAS STATICCALL ISZERO DUP1 ISZERO PUSH2 0x92B JUMPI RETURNDATASIZE PUSH1 0x0 DUP1 RETURNDATACOPY RETURNDATASIZE PUSH1 0x0 REVERT JUMPDEST POP POP POP POP PUSH1 0x40 MLOAD RETURNDATASIZE PUSH1 0x1F NOT PUSH1 0x1F DUP3 ADD AND DUP3 ADD DUP1 PUSH1 0x40 MSTORE POP DUP2 ADD SWAP1 PUSH2 0x94F SWAP2 SWAP1 PUSH2 0x159F JUMP JUMPDEST PUSH1 0x1 PUSH1 0x1 PUSH1 0xA0 SHL SUB AND PUSH4 0x70A08231 PUSH32 0x0 PUSH1 0x40 MLOAD DUP3 PUSH4 0xFFFFFFFF AND PUSH1 0xE0 SHL DUP2 MSTORE PUSH1 0x4 ADD PUSH2 0x99A SWAP2 SWAP1 PUSH2 0x1704 JUMP JUMPDEST PUSH1 0x20 PUSH1 0x40 MLOAD DUP1 DUP4 SUB DUP2 DUP7 DUP1 EXTCODESIZE ISZERO DUP1 ISZERO PUSH2 0x9B2 JUMPI PUSH1 0x0 DUP1 REVERT JUMPDEST POP GAS STATICCALL ISZERO DUP1 ISZERO PUSH2 0x9C6 JUMPI RETURNDATASIZE PUSH1 0x0 DUP1 RETURNDATACOPY RETURNDATASIZE PUSH1 0x0 REVERT JUMPDEST POP POP POP POP PUSH1 0x40 MLOAD RETURNDATASIZE PUSH1 0x1F NOT PUSH1 0x1F DUP3 ADD AND DUP3 ADD DUP1 PUSH1 0x40 MSTORE POP DUP2 ADD SWAP1 PUSH2 0x9EA SWAP2 SWAP1 PUSH2 0x15D3 JUMP JUMPDEST SWAP1 POP DUP1 ISZERO PUSH2 0xA8F JUMPI PUSH1 0x0 PUSH2 0xA15 DUP4 PUSH1 0x20 ADD MLOAD PUSH8 0xFFFFFFFFFFFFFFFF AND TIMESTAMP PUSH2 0x1261 SWAP1 SWAP2 SWAP1 PUSH4 0xFFFFFFFF AND JUMP JUMPDEST SWAP1 POP PUSH1 0x0 PUSH1 0x5 SLOAD PUSH2 0xA43 DUP6 PUSH1 0x40 ADD MLOAD PUSH8 0xFFFFFFFFFFFFFFFF AND PUSH2 0x738 PUSH1 0x6 SLOAD DUP7 PUSH2 0x12DB SWAP1 SWAP2 SWAP1 PUSH4 0xFFFFFFFF AND JUMP JUMPDEST DUP2 PUSH2 0xA4A JUMPI INVALID JUMPDEST DIV SWAP1 POP PUSH2 0xA81 PUSH2 0xA70 DUP5 PUSH2 0xA63 DUP5 PUSH5 0xE8D4A51000 PUSH2 0x12DB JUMP JUMPDEST DUP2 PUSH2 0xA6A JUMPI INVALID JUMPDEST DIV PUSH2 0x1312 JUMP JUMPDEST DUP6 MLOAD PUSH1 0x1 PUSH1 0x1 PUSH1 0x80 SHL SUB AND SWAP1 PUSH2 0x133B JUMP JUMPDEST PUSH1 0x1 PUSH1 0x1 PUSH1 0x80 SHL SUB AND DUP5 MSTORE POP POP JUMPDEST PUSH2 0xA98 TIMESTAMP PUSH2 0x12AD JUMP JUMPDEST PUSH8 0xFFFFFFFFFFFFFFFF SWAP1 DUP2 AND PUSH1 0x20 DUP5 DUP2 ADD SWAP2 DUP3 MSTORE PUSH1 0x0 DUP7 DUP2 MSTORE PUSH1 0x2 SWAP1 SWAP2 MSTORE PUSH1 0x40 SWAP1 DUP2 SWAP1 KECCAK256 DUP6 MLOAD DUP2 SLOAD SWAP4 MLOAD DUP4 DUP9 ADD MLOAD PUSH16 0xFFFFFFFFFFFFFFFFFFFFFFFFFFFFFFFF NOT SWAP1 SWAP6 AND PUSH1 0x1 PUSH1 0x1 PUSH1 0x80 SHL SUB DUP4 AND OR PUSH32 0xFFFFFFFFFFFFFFFF0000000000000000FFFFFFFFFFFFFFFFFFFFFFFFFFFFFFFF AND PUSH1 0x1 PUSH1 0x80 SHL DUP3 DUP9 AND MUL OR PUSH24 0xFFFFFFFFFFFFFFFFFFFFFFFFFFFFFFFFFFFFFFFFFFFFFFFF AND PUSH1 0x1 PUSH1 0xC0 SHL SWAP6 SWAP1 SWAP7 AND SWAP5 SWAP1 SWAP5 MUL SWAP5 SWAP1 SWAP5 OR SWAP1 SSTORE MLOAD DUP6 SWAP3 PUSH32 0xFC9545022A542541AD085D091FB09A2AB36FEE366A4576AB63714EA907AD353 SWAP3 PUSH2 0xB71 SWAP3 SWAP1 SWAP2 DUP7 SWAP2 PUSH2 0x1AFB JUMP JUMPDEST PUSH1 0x40 MLOAD DUP1 SWAP2 SUB SWAP1 LOG2 POP JUMPDEST SWAP2 SWAP1 POP JUMP JUMPDEST DUP1 PUSH1 0x0 JUMPDEST DUP2 DUP2 LT ISZERO PUSH2 0xBB0 JUMPI PUSH2 0xBA7 DUP5 DUP5 DUP4 DUP2 DUP2 LT PUSH2 0xB9B JUMPI INVALID JUMPDEST SWAP1 POP PUSH1 0x20 MUL ADD CALLDATALOAD PUSH2 0x850 JUMP JUMPDEST POP PUSH1 0x1 ADD PUSH2 0xB84 JUMP JUMPDEST POP POP POP POP JUMP JUMPDEST PUSH1 0x0 SLOAD PUSH1 0x1 PUSH1 0x1 PUSH1 0xA0 SHL SUB AND CALLER EQ PUSH2 0xBE0 JUMPI PUSH1 0x40 MLOAD PUSH3 0x461BCD PUSH1 0xE5 SHL DUP2 MSTORE PUSH1 0x4 ADD PUSH2 0x305 SWAP1 PUSH2 0x190B JUMP JUMPDEST PUSH1 0x6 DUP2 SWAP1 SSTORE PUSH1 0x40 MLOAD PUSH32 0xDE89CB17AC7F58F94792B3E91E086ED85403819C24CEEA882491F960CCB1A278 SWAP1 PUSH2 0xC15 SWAP1 DUP4 SWAP1 PUSH2 0x1ADC JUMP JUMPDEST PUSH1 0x40 MLOAD DUP1 SWAP2 SUB SWAP1 LOG1 POP JUMP JUMPDEST PUSH1 0x3 DUP2 DUP2 SLOAD DUP2 LT PUSH2 0xC2D JUMPI INVALID JUMPDEST PUSH1 0x0 SWAP2 DUP3 MSTORE PUSH1 0x20 SWAP1 SWAP2 KECCAK256 ADD SLOAD SWAP1 POP DUP2 JUMP JUMPDEST PUSH1 0x0 SLOAD PUSH1 0x1 PUSH1 0x1 PUSH1 0xA0 SHL SUB AND CALLER EQ PUSH2 0xC68 JUMPI PUSH1 0x40 MLOAD PUSH3 0x461BCD PUSH1 0xE5 SHL DUP2 MSTORE PUSH1 0x4 ADD PUSH2 0x305 SWAP1 PUSH2 0x190B JUMP JUMPDEST PUSH1 0x0 DUP2 DUP2 MSTORE PUSH1 0x2 PUSH1 0x20 MSTORE PUSH1 0x40 SWAP1 KECCAK256 SLOAD PUSH1 0x1 PUSH1 0x80 SHL SWAP1 DIV PUSH8 0xFFFFFFFFFFFFFFFF AND ISZERO PUSH2 0xCA5 JUMPI PUSH1 0x40 MLOAD PUSH3 0x461BCD PUSH1 0xE5 SHL DUP2 MSTORE PUSH1 0x4 ADD PUSH2 0x305 SWAP1 PUSH2 0x17F8 JUMP JUMPDEST PUSH1 0x5 SLOAD TIMESTAMP SWAP1 PUSH2 0xCB4 SWAP1 DUP5 PUSH2 0x128A JUMP JUMPDEST PUSH1 0x5 SSTORE PUSH1 0x40 DUP1 MLOAD PUSH1 0x60 DUP2 ADD SWAP1 SWAP2 MSTORE PUSH1 0x0 DUP2 MSTORE PUSH1 0x20 DUP2 ADD PUSH2 0xCD3 DUP4 PUSH2 0x12AD JUMP JUMPDEST PUSH8 0xFFFFFFFFFFFFFFFF AND DUP2 MSTORE PUSH1 0x20 ADD PUSH2 0xCEB DUP6 PUSH2 0x12AD JUMP JUMPDEST PUSH8 0xFFFFFFFFFFFFFFFF SWAP1 DUP2 AND SWAP1 SWAP2 MSTORE PUSH1 0x0 DUP5 DUP2 MSTORE PUSH1 0x2 PUSH1 0x20 SWAP1 DUP2 MSTORE PUSH1 0x40 DUP1 DUP4 KECCAK256 DUP6 MLOAD DUP2 SLOAD SWAP4 DUP8 ADD MLOAD SWAP7 DUP4 ADD MLOAD DUP7 AND PUSH1 0x1 PUSH1 0xC0 SHL MUL PUSH24 0xFFFFFFFFFFFFFFFFFFFFFFFFFFFFFFFFFFFFFFFFFFFFFFFF SWAP8 SWAP1 SWAP7 AND PUSH1 0x1 PUSH1 0x80 SHL MUL PUSH32 0xFFFFFFFFFFFFFFFF0000000000000000FFFFFFFFFFFFFFFFFFFFFFFFFFFFFFFF PUSH1 0x1 PUSH1 0x1 PUSH1 0x80 SHL SUB SWAP1 SWAP3 AND PUSH16 0xFFFFFFFFFFFFFFFFFFFFFFFFFFFFFFFF NOT SWAP1 SWAP6 AND SWAP5 SWAP1 SWAP5 OR AND SWAP3 SWAP1 SWAP3 OR SWAP5 SWAP1 SWAP5 AND SWAP3 SWAP1 SWAP3 OR SWAP1 SWAP2 SSTORE PUSH1 0x3 DUP1 SLOAD PUSH1 0x1 DUP2 ADD DUP3 SSTORE SWAP2 MSTORE PUSH32 0xC2575A0E9E593C00F959F8C92F12DB2869C3395A3B0502D05E2516446F71F85B ADD DUP4 SWAP1 SSTORE MLOAD DUP3 SWAP1 PUSH32 0x38410508059921573AB9EBDCA2A5034BE738D236366B8F32DE4434EA95ED3C81 SWAP1 PUSH2 0xDF8 SWAP1 DUP7 SWAP1 PUSH2 0x1ADC JUMP JUMPDEST PUSH1 0x40 MLOAD DUP1 SWAP2 SUB SWAP1 LOG2 POP POP POP JUMP JUMPDEST PUSH1 0x0 SLOAD PUSH1 0x1 PUSH1 0x1 PUSH1 0xA0 SHL SUB AND DUP2 JUMP JUMPDEST PUSH1 0x6 SLOAD DUP2 JUMP JUMPDEST PUSH1 0x4 PUSH1 0x20 SWAP1 DUP2 MSTORE PUSH1 0x0 SWAP3 DUP4 MSTORE PUSH1 0x40 DUP1 DUP5 KECCAK256 SWAP1 SWAP2 MSTORE SWAP1 DUP3 MSTORE SWAP1 KECCAK256 DUP1 SLOAD PUSH1 0x1 DUP3 ADD SLOAD PUSH1 0x2 SWAP1 SWAP3 ADD SLOAD SWAP1 SWAP2 SWAP1 DUP4 JUMP JUMPDEST CALLER PUSH1 0x1 PUSH1 0x1 PUSH1 0xA0 SHL SUB PUSH32 0x0 AND EQ PUSH2 0xE8E JUMPI PUSH1 0x40 MLOAD PUSH3 0x461BCD PUSH1 0xE5 SHL DUP2 MSTORE PUSH1 0x4 ADD PUSH2 0x305 SWAP1 PUSH2 0x1940 JUMP JUMPDEST PUSH1 0x7 SLOAD PUSH1 0x1 EQ PUSH2 0xEB0 JUMPI PUSH1 0x40 MLOAD PUSH3 0x461BCD PUSH1 0xE5 SHL DUP2 MSTORE PUSH1 0x4 ADD PUSH2 0x305 SWAP1 PUSH2 0x1A09 JUMP JUMPDEST PUSH1 0x2 PUSH1 0x7 SSTORE PUSH2 0xEBD PUSH2 0x146D JUMP JUMPDEST PUSH2 0xEC6 DUP7 PUSH2 0x850 JUMP JUMPDEST PUSH1 0x0 DUP8 DUP2 MSTORE PUSH1 0x4 PUSH1 0x20 SWAP1 DUP2 MSTORE PUSH1 0x40 DUP1 DUP4 KECCAK256 PUSH1 0x1 PUSH1 0x1 PUSH1 0xA0 SHL SUB DUP11 AND DUP5 MSTORE SWAP1 SWAP2 MSTORE DUP2 KECCAK256 DUP1 SLOAD SWAP3 SWAP4 POP SWAP2 ISZERO PUSH2 0x1056 JUMPI PUSH2 0xF2D DUP3 PUSH1 0x2 ADD SLOAD PUSH2 0x47E DUP5 PUSH1 0x1 ADD SLOAD PUSH5 0xE8D4A51000 PUSH2 0x79D DUP9 PUSH1 0x0 ADD MLOAD PUSH1 0x1 PUSH1 0x1 PUSH1 0x80 SHL SUB AND DUP9 PUSH1 0x0 ADD SLOAD PUSH2 0x12DB SWAP1 SWAP2 SWAP1 PUSH4 0xFFFFFFFF AND JUMP JUMPDEST SWAP1 POP PUSH1 0x0 PUSH32 0x0 PUSH1 0x1 PUSH1 0x1 PUSH1 0xA0 SHL SUB AND PUSH4 0x70A08231 ADDRESS PUSH1 0x40 MLOAD DUP3 PUSH4 0xFFFFFFFF AND PUSH1 0xE0 SHL DUP2 MSTORE PUSH1 0x4 ADD PUSH2 0xF7D SWAP2 SWAP1 PUSH2 0x1704 JUMP JUMPDEST PUSH1 0x20 PUSH1 0x40 MLOAD DUP1 DUP4 SUB DUP2 DUP7 DUP1 EXTCODESIZE ISZERO DUP1 ISZERO PUSH2 0xF95 JUMPI PUSH1 0x0 DUP1 REVERT JUMPDEST POP GAS STATICCALL ISZERO DUP1 ISZERO PUSH2 0xFA9 JUMPI RETURNDATASIZE PUSH1 0x0 DUP1 RETURNDATACOPY RETURNDATASIZE PUSH1 0x0 REVERT JUMPDEST POP POP POP POP PUSH1 0x40 MLOAD RETURNDATASIZE PUSH1 0x1F NOT PUSH1 0x1F DUP3 ADD AND DUP3 ADD DUP1 PUSH1 0x40 MSTORE POP DUP2 ADD SWAP1 PUSH2 0xFCD SWAP2 SWAP1 PUSH2 0x15D3 JUMP JUMPDEST SWAP1 POP DUP1 DUP3 GT ISZERO PUSH2 0x1018 JUMPI PUSH2 0x100B PUSH1 0x1 PUSH1 0x1 PUSH1 0xA0 SHL SUB PUSH32 0x0 AND DUP9 DUP4 PUSH2 0x136A JUMP JUMPDEST DUP1 DUP3 SUB PUSH1 0x2 DUP5 ADD SSTORE PUSH2 0x1054 JUMP JUMPDEST PUSH2 0x104C PUSH1 0x1 PUSH1 0x1 PUSH1 0xA0 SHL SUB PUSH32 0x0 AND DUP9 DUP5 PUSH2 0x136A JUMP JUMPDEST PUSH1 0x0 PUSH1 0x2 DUP5 ADD SSTORE JUMPDEST POP JUMPDEST DUP4 DUP3 SSTORE DUP3 MLOAD PUSH5 0xE8D4A51000 SWAP1 PUSH2 0x1076 SWAP1 DUP7 SWAP1 PUSH1 0x1 PUSH1 0x1 PUSH1 0x80 SHL SUB AND PUSH2 0x12DB JUMP JUMPDEST DUP2 PUSH2 0x107D JUMPI INVALID JUMPDEST DIV DUP3 PUSH1 0x1 ADD DUP2 SWAP1 SSTORE POP DUP6 PUSH1 0x1 PUSH1 0x1 PUSH1 0xA0 SHL SUB AND DUP9 DUP9 PUSH1 0x1 PUSH1 0x1 PUSH1 0xA0 SHL SUB AND PUSH32 0x2ECE88CA2BC08DD018DB50E1D25A20BF1241E5FAB1C396CAA51F01A54BD2F75B DUP6 PUSH1 0x2 ADD SLOAD DUP6 SUB PUSH1 0x40 MLOAD PUSH2 0x10D0 SWAP2 SWAP1 PUSH2 0x1ADC JUMP JUMPDEST PUSH1 0x40 MLOAD DUP1 SWAP2 SUB SWAP1 LOG4 POP POP PUSH1 0x1 PUSH1 0x7 SSTORE POP POP POP POP POP POP JUMP JUMPDEST PUSH1 0x0 SLOAD PUSH1 0x1 PUSH1 0x1 PUSH1 0xA0 SHL SUB AND CALLER EQ PUSH2 0x1111 JUMPI PUSH1 0x40 MLOAD PUSH3 0x461BCD PUSH1 0xE5 SHL DUP2 MSTORE PUSH1 0x4 ADD PUSH2 0x305 SWAP1 PUSH2 0x190B JUMP JUMPDEST PUSH1 0x1 PUSH1 0x1 PUSH1 0xA0 SHL SUB DUP4 AND PUSH2 0x115B JUMPI PUSH1 0x40 MLOAD PUSH1 0x1 PUSH1 0x1 PUSH1 0xA0 SHL SUB DUP3 AND SWAP1 DUP4 ISZERO PUSH2 0x8FC MUL SWAP1 DUP5 SWAP1 PUSH1 0x0 DUP2 DUP2 DUP2 DUP6 DUP9 DUP9 CALL SWAP4 POP POP POP POP ISZERO DUP1 ISZERO PUSH2 0x1155 JUMPI RETURNDATASIZE PUSH1 0x0 DUP1 RETURNDATACOPY RETURNDATASIZE PUSH1 0x0 REVERT JUMPDEST POP PUSH2 0x3DF JUMP JUMPDEST PUSH2 0x3DF PUSH1 0x1 PUSH1 0x1 PUSH1 0xA0 SHL SUB DUP5 AND DUP3 DUP5 PUSH2 0x136A JUMP JUMPDEST PUSH1 0x40 DUP1 MLOAD PUSH1 0x1 DUP1 DUP3 MSTORE DUP2 DUP4 ADD SWAP1 SWAP3 MSTORE PUSH1 0x60 SWAP2 DUP3 SWAP2 DUP3 SWAP2 PUSH1 0x20 DUP1 DUP4 ADD SWAP1 DUP1 CALLDATASIZE DUP4 CALLDATACOPY ADD SWAP1 POP POP SWAP1 POP PUSH32 0x0 DUP2 PUSH1 0x0 DUP2 MLOAD DUP2 LT PUSH2 0x11C3 JUMPI INVALID JUMPDEST PUSH1 0x1 PUSH1 0x1 PUSH1 0xA0 SHL SUB SWAP3 SWAP1 SWAP3 AND PUSH1 0x20 SWAP3 DUP4 MUL SWAP2 SWAP1 SWAP2 ADD SWAP1 SWAP2 ADD MSTORE PUSH1 0x40 DUP1 MLOAD PUSH1 0x1 DUP1 DUP3 MSTORE DUP2 DUP4 ADD SWAP1 SWAP3 MSTORE PUSH1 0x60 SWAP2 DUP2 PUSH1 0x20 ADD PUSH1 0x20 DUP3 MUL DUP1 CALLDATASIZE DUP4 CALLDATACOPY ADD SWAP1 POP POP SWAP1 POP PUSH2 0x120A DUP8 DUP8 PUSH2 0x514 JUMP JUMPDEST DUP2 PUSH1 0x0 DUP2 MLOAD DUP2 LT PUSH2 0x1217 JUMPI INVALID JUMPDEST PUSH1 0x20 SWAP1 DUP2 MUL SWAP2 SWAP1 SWAP2 ADD ADD MSTORE SWAP1 SWAP7 SWAP1 SWAP6 POP SWAP4 POP POP POP POP JUMP JUMPDEST PUSH1 0x1 SLOAD PUSH1 0x1 PUSH1 0x1 PUSH1 0xA0 SHL SUB AND DUP2 JUMP JUMPDEST PUSH32 0x0 DUP2 JUMP JUMPDEST DUP1 DUP3 SUB DUP3 DUP2 GT ISZERO PUSH2 0x1284 JUMPI PUSH1 0x40 MLOAD PUSH3 0x461BCD PUSH1 0xE5 SHL DUP2 MSTORE PUSH1 0x4 ADD PUSH2 0x305 SWAP1 PUSH2 0x17C1 JUMP JUMPDEST SWAP3 SWAP2 POP POP JUMP JUMPDEST DUP2 DUP2 ADD DUP2 DUP2 LT ISZERO PUSH2 0x1284 JUMPI PUSH1 0x40 MLOAD PUSH3 0x461BCD PUSH1 0xE5 SHL DUP2 MSTORE PUSH1 0x4 ADD PUSH2 0x305 SWAP1 PUSH2 0x18D4 JUMP JUMPDEST PUSH1 0x0 PUSH8 0xFFFFFFFFFFFFFFFF DUP3 GT ISZERO PUSH2 0x12D7 JUMPI PUSH1 0x40 MLOAD PUSH3 0x461BCD PUSH1 0xE5 SHL DUP2 MSTORE PUSH1 0x4 ADD PUSH2 0x305 SWAP1 PUSH2 0x19D2 JUMP JUMPDEST POP SWAP1 JUMP JUMPDEST PUSH1 0x0 DUP2 ISZERO DUP1 PUSH2 0x12F6 JUMPI POP POP DUP1 DUP3 MUL DUP3 DUP3 DUP3 DUP2 PUSH2 0x12F3 JUMPI INVALID JUMPDEST DIV EQ JUMPDEST PUSH2 0x1284 JUMPI PUSH1 0x40 MLOAD PUSH3 0x461BCD PUSH1 0xE5 SHL DUP2 MSTORE PUSH1 0x4 ADD PUSH2 0x305 SWAP1 PUSH2 0x1A40 JUMP JUMPDEST PUSH1 0x0 PUSH1 0x1 PUSH1 0x1 PUSH1 0x80 SHL SUB DUP3 GT ISZERO PUSH2 0x12D7 JUMPI PUSH1 0x40 MLOAD PUSH3 0x461BCD PUSH1 0xE5 SHL DUP2 MSTORE PUSH1 0x4 ADD PUSH2 0x305 SWAP1 PUSH2 0x189D JUMP JUMPDEST DUP2 DUP2 ADD PUSH1 0x1 PUSH1 0x1 PUSH1 0x80 SHL SUB DUP1 DUP4 AND SWAP1 DUP3 AND LT ISZERO PUSH2 0x1284 JUMPI PUSH1 0x40 MLOAD PUSH3 0x461BCD PUSH1 0xE5 SHL DUP2 MSTORE PUSH1 0x4 ADD PUSH2 0x305 SWAP1 PUSH2 0x18D4 JUMP JUMPDEST PUSH1 0x0 PUSH1 0x60 DUP5 PUSH1 0x1 PUSH1 0x1 PUSH1 0xA0 SHL SUB AND PUSH4 0xA9059CBB DUP6 DUP6 PUSH1 0x40 MLOAD PUSH1 0x24 ADD PUSH2 0x1390 SWAP3 SWAP2 SWAP1 PUSH2 0x1718 JUMP JUMPDEST PUSH1 0x40 MLOAD PUSH1 0x20 DUP2 DUP4 SUB SUB DUP2 MSTORE SWAP1 PUSH1 0x40 MSTORE SWAP1 PUSH1 0xE0 SHL PUSH1 0x20 DUP3 ADD DUP1 MLOAD PUSH28 0xFFFFFFFFFFFFFFFFFFFFFFFFFFFFFFFFFFFFFFFFFFFFFFFFFFFFFFFF DUP4 DUP2 DUP4 AND OR DUP4 MSTORE POP POP POP POP PUSH1 0x40 MLOAD PUSH2 0x13DE SWAP2 SWAP1 PUSH2 0x16CB JUMP JUMPDEST PUSH1 0x0 PUSH1 0x40 MLOAD DUP1 DUP4 SUB DUP2 PUSH1 0x0 DUP7 GAS CALL SWAP2 POP POP RETURNDATASIZE DUP1 PUSH1 0x0 DUP2 EQ PUSH2 0x141B JUMPI PUSH1 0x40 MLOAD SWAP2 POP PUSH1 0x1F NOT PUSH1 0x3F RETURNDATASIZE ADD AND DUP3 ADD PUSH1 0x40 MSTORE RETURNDATASIZE DUP3 MSTORE RETURNDATASIZE PUSH1 0x0 PUSH1 0x20 DUP5 ADD RETURNDATACOPY PUSH2 0x1420 JUMP JUMPDEST PUSH1 0x60 SWAP2 POP JUMPDEST POP SWAP2 POP SWAP2 POP DUP2 DUP1 ISZERO PUSH2 0x144A JUMPI POP DUP1 MLOAD ISZERO DUP1 PUSH2 0x144A JUMPI POP DUP1 DUP1 PUSH1 0x20 ADD SWAP1 MLOAD DUP2 ADD SWAP1 PUSH2 0x144A SWAP2 SWAP1 PUSH2 0x157C JUMP JUMPDEST PUSH2 0x1466 JUMPI PUSH1 0x40 MLOAD PUSH3 0x461BCD PUSH1 0xE5 SHL DUP2 MSTORE PUSH1 0x4 ADD PUSH2 0x305 SWAP1 PUSH2 0x182F JUMP JUMPDEST POP POP POP POP POP JUMP JUMPDEST PUSH1 0x40 DUP1 MLOAD PUSH1 0x60 DUP2 ADD DUP3 MSTORE PUSH1 0x0 DUP1 DUP3 MSTORE PUSH1 0x20 DUP3 ADD DUP2 SWAP1 MSTORE SWAP2 DUP2 ADD SWAP2 SWAP1 SWAP2 MSTORE SWAP1 JUMP JUMPDEST PUSH1 0x0 DUP1 PUSH1 0x0 PUSH1 0x60 DUP5 DUP7 SUB SLT ISZERO PUSH2 0x14A1 JUMPI DUP3 DUP4 REVERT JUMPDEST DUP4 CALLDATALOAD PUSH2 0x14AC DUP2 PUSH2 0x1B26 JUMP JUMPDEST SWAP3 POP PUSH1 0x20 DUP5 ADD CALLDATALOAD PUSH2 0x14BC DUP2 PUSH2 0x1B3E JUMP JUMPDEST SWAP2 POP PUSH1 0x40 DUP5 ADD CALLDATALOAD PUSH2 0x14CC DUP2 PUSH2 0x1B3E JUMP JUMPDEST DUP1 SWAP2 POP POP SWAP3 POP SWAP3 POP SWAP3 JUMP JUMPDEST PUSH1 0x0 DUP1 PUSH1 0x0 PUSH1 0x60 DUP5 DUP7 SUB SLT ISZERO PUSH2 0x14EB JUMPI DUP3 DUP4 REVERT JUMPDEST DUP4 CALLDATALOAD PUSH2 0x14F6 DUP2 PUSH2 0x1B26 JUMP JUMPDEST SWAP3 POP PUSH1 0x20 DUP5 ADD CALLDATALOAD SWAP2 POP PUSH1 0x40 DUP5 ADD CALLDATALOAD PUSH2 0x14CC DUP2 PUSH2 0x1B26 JUMP JUMPDEST PUSH1 0x0 DUP1 PUSH1 0x20 DUP4 DUP6 SUB SLT ISZERO PUSH2 0x151F JUMPI DUP2 DUP3 REVERT JUMPDEST DUP3 CALLDATALOAD PUSH8 0xFFFFFFFFFFFFFFFF DUP1 DUP3 GT ISZERO PUSH2 0x1536 JUMPI DUP4 DUP5 REVERT JUMPDEST DUP2 DUP6 ADD SWAP2 POP DUP6 PUSH1 0x1F DUP4 ADD SLT PUSH2 0x1549 JUMPI DUP4 DUP5 REVERT JUMPDEST DUP2 CALLDATALOAD DUP2 DUP2 GT ISZERO PUSH2 0x1557 JUMPI DUP5 DUP6 REVERT JUMPDEST DUP7 PUSH1 0x20 DUP1 DUP4 MUL DUP6 ADD ADD GT ISZERO PUSH2 0x156A JUMPI DUP5 DUP6 REVERT JUMPDEST PUSH1 0x20 SWAP3 SWAP1 SWAP3 ADD SWAP7 SWAP2 SWAP6 POP SWAP1 SWAP4 POP POP POP POP JUMP JUMPDEST PUSH1 0x0 PUSH1 0x20 DUP3 DUP5 SUB SLT ISZERO PUSH2 0x158D JUMPI DUP1 DUP2 REVERT JUMPDEST DUP2 MLOAD PUSH2 0x1598 DUP2 PUSH2 0x1B3E JUMP JUMPDEST SWAP4 SWAP3 POP POP POP JUMP JUMPDEST PUSH1 0x0 PUSH1 0x20 DUP3 DUP5 SUB SLT ISZERO PUSH2 0x15B0 JUMPI DUP1 DUP2 REVERT JUMPDEST DUP2 MLOAD PUSH2 0x1598 DUP2 PUSH2 0x1B26 JUMP JUMPDEST PUSH1 0x0 PUSH1 0x20 DUP3 DUP5 SUB SLT ISZERO PUSH2 0x15CC JUMPI DUP1 DUP2 REVERT JUMPDEST POP CALLDATALOAD SWAP2 SWAP1 POP JUMP JUMPDEST PUSH1 0x0 PUSH1 0x20 DUP3 DUP5 SUB SLT ISZERO PUSH2 0x15E4 JUMPI DUP1 DUP2 REVERT JUMPDEST POP MLOAD SWAP2 SWAP1 POP JUMP JUMPDEST PUSH1 0x0 DUP1 PUSH1 0x40 DUP4 DUP6 SUB SLT ISZERO PUSH2 0x15FD JUMPI DUP2 DUP3 REVERT JUMPDEST DUP3 CALLDATALOAD SWAP2 POP PUSH1 0x20 DUP4 ADD CALLDATALOAD PUSH2 0x160F DUP2 PUSH2 0x1B26 JUMP JUMPDEST DUP1 SWAP2 POP POP SWAP3 POP SWAP3 SWAP1 POP JUMP JUMPDEST PUSH1 0x0 DUP1 PUSH1 0x0 DUP1 PUSH1 0x0 PUSH1 0xA0 DUP7 DUP9 SUB SLT ISZERO PUSH2 0x1631 JUMPI DUP1 DUP2 REVERT JUMPDEST DUP6 CALLDATALOAD SWAP5 POP PUSH1 0x20 DUP7 ADD CALLDATALOAD PUSH2 0x1643 DUP2 PUSH2 0x1B26 JUMP JUMPDEST SWAP4 POP PUSH1 0x40 DUP7 ADD CALLDATALOAD PUSH2 0x1653 DUP2 PUSH2 0x1B26 JUMP JUMPDEST SWAP5 SWAP8 SWAP4 SWAP7 POP SWAP4 SWAP5 PUSH1 0x60 DUP2 ADD CALLDATALOAD SWAP5 POP PUSH1 0x80 ADD CALLDATALOAD SWAP3 SWAP2 POP POP JUMP JUMPDEST PUSH1 0x0 DUP1 PUSH1 0x0 PUSH1 0x60 DUP5 DUP7 SUB SLT ISZERO PUSH2 0x167F JUMPI DUP3 DUP4 REVERT JUMPDEST DUP4 CALLDATALOAD SWAP3 POP PUSH1 0x20 DUP5 ADD CALLDATALOAD PUSH2 0x1691 DUP2 PUSH2 0x1B26 JUMP JUMPDEST SWAP3 SWAP6 SWAP3 SWAP5 POP POP POP PUSH1 0x40 SWAP2 SWAP1 SWAP2 ADD CALLDATALOAD SWAP1 JUMP JUMPDEST PUSH1 0x0 DUP1 PUSH1 0x40 DUP4 DUP6 SUB SLT ISZERO PUSH2 0x16B4 JUMPI DUP2 DUP3 REVERT JUMPDEST POP POP DUP1 CALLDATALOAD SWAP3 PUSH1 0x20 SWAP1 SWAP2 ADD CALLDATALOAD SWAP2 POP JUMP JUMPDEST DUP2 MSTORE PUSH1 0x20 ADD SWAP1 JUMP JUMPDEST PUSH1 0x0 DUP3 MLOAD DUP2 JUMPDEST DUP2 DUP2 LT ISZERO PUSH2 0x16EB JUMPI PUSH1 0x20 DUP2 DUP7 ADD DUP2 ADD MLOAD DUP6 DUP4 ADD MSTORE ADD PUSH2 0x16D1 JUMP JUMPDEST DUP2 DUP2 GT ISZERO PUSH2 0x16F9 JUMPI DUP3 DUP3 DUP6 ADD MSTORE JUMPDEST POP SWAP2 SWAP1 SWAP2 ADD SWAP3 SWAP2 POP POP JUMP JUMPDEST PUSH1 0x1 PUSH1 0x1 PUSH1 0xA0 SHL SUB SWAP2 SWAP1 SWAP2 AND DUP2 MSTORE PUSH1 0x20 ADD SWAP1 JUMP JUMPDEST PUSH1 0x1 PUSH1 0x1 PUSH1 0xA0 SHL SUB SWAP3 SWAP1 SWAP3 AND DUP3 MSTORE PUSH1 0x20 DUP3 ADD MSTORE PUSH1 0x40 ADD SWAP1 JUMP JUMPDEST PUSH1 0x40 DUP1 DUP3 MSTORE DUP4 MLOAD SWAP1 DUP3 ADD DUP2 SWAP1 MSTORE PUSH1 0x0 SWAP1 PUSH1 0x20 SWAP1 PUSH1 0x60 DUP5 ADD SWAP1 DUP3 DUP8 ADD DUP5 JUMPDEST DUP3 DUP2 LT ISZERO PUSH2 0x1773 JUMPI DUP2 MLOAD PUSH1 0x1 PUSH1 0x1 PUSH1 0xA0 SHL SUB AND DUP5 MSTORE SWAP3 DUP5 ADD SWAP3 SWAP1 DUP5 ADD SWAP1 PUSH1 0x1 ADD PUSH2 0x174E JUMP JUMPDEST POP POP POP DUP4 DUP2 SUB DUP3 DUP6 ADD MSTORE DUP1 DUP6 MLOAD PUSH2 0x178A DUP2 DUP5 PUSH2 0x1ADC JUMP JUMPDEST SWAP2 POP DUP4 DUP8 ADD SWAP3 POP DUP5 JUMPDEST DUP2 DUP2 LT ISZERO PUSH2 0x17B4 JUMPI PUSH2 0x17A6 DUP4 DUP6 MLOAD PUSH2 0x16C3 JUMP JUMPDEST SWAP4 DUP6 ADD SWAP4 SWAP3 POP PUSH1 0x1 ADD PUSH2 0x1793 JUMP JUMPDEST POP SWAP1 SWAP8 SWAP7 POP POP POP POP POP POP POP JUMP JUMPDEST PUSH1 0x20 DUP1 DUP3 MSTORE PUSH1 0x15 SWAP1 DUP3 ADD MSTORE PUSH32 0x426F72696E674D6174683A20556E646572666C6F770000000000000000000000 PUSH1 0x40 DUP3 ADD MSTORE PUSH1 0x60 ADD SWAP1 JUMP JUMPDEST PUSH1 0x20 DUP1 DUP3 MSTORE PUSH1 0x13 SWAP1 DUP3 ADD MSTORE PUSH32 0x506F6F6C20616C72656164792065786973747300000000000000000000000000 PUSH1 0x40 DUP3 ADD MSTORE PUSH1 0x60 ADD SWAP1 JUMP JUMPDEST PUSH1 0x20 DUP1 DUP3 MSTORE PUSH1 0x1C SWAP1 DUP3 ADD MSTORE PUSH32 0x426F72696E6745524332303A205472616E73666572206661696C656400000000 PUSH1 0x40 DUP3 ADD MSTORE PUSH1 0x60 ADD SWAP1 JUMP JUMPDEST PUSH1 0x20 DUP1 DUP3 MSTORE PUSH1 0x15 SWAP1 DUP3 ADD MSTORE PUSH32 0x4F776E61626C653A207A65726F20616464726573730000000000000000000000 PUSH1 0x40 DUP3 ADD MSTORE PUSH1 0x60 ADD SWAP1 JUMP JUMPDEST PUSH1 0x20 DUP1 DUP3 MSTORE PUSH1 0x1C SWAP1 DUP3 ADD MSTORE PUSH32 0x426F72696E674D6174683A2075696E74313238204F766572666C6F7700000000 PUSH1 0x40 DUP3 ADD MSTORE PUSH1 0x60 ADD SWAP1 JUMP JUMPDEST PUSH1 0x20 DUP1 DUP3 MSTORE PUSH1 0x18 SWAP1 DUP3 ADD MSTORE PUSH32 0x426F72696E674D6174683A20416464204F766572666C6F770000000000000000 PUSH1 0x40 DUP3 ADD MSTORE PUSH1 0x60 ADD SWAP1 JUMP JUMPDEST PUSH1 0x20 DUP1 DUP3 MSTORE DUP2 DUP2 ADD MSTORE PUSH32 0x4F776E61626C653A2063616C6C6572206973206E6F7420746865206F776E6572 PUSH1 0x40 DUP3 ADD MSTORE PUSH1 0x60 ADD SWAP1 JUMP JUMPDEST PUSH1 0x20 DUP1 DUP3 MSTORE PUSH1 0x21 SWAP1 DUP3 ADD MSTORE PUSH32 0x4F6E6C7920636865662063616E2063616C6C20746869732066756E6374696F6E PUSH1 0x40 DUP3 ADD MSTORE PUSH32 0x2E00000000000000000000000000000000000000000000000000000000000000 PUSH1 0x60 DUP3 ADD MSTORE PUSH1 0x80 ADD SWAP1 JUMP JUMPDEST PUSH1 0x20 DUP1 DUP3 MSTORE DUP2 DUP2 ADD MSTORE PUSH32 0x4F776E61626C653A2063616C6C657220213D2070656E64696E67206F776E6572 PUSH1 0x40 DUP3 ADD MSTORE PUSH1 0x60 ADD SWAP1 JUMP JUMPDEST PUSH1 0x20 DUP1 DUP3 MSTORE PUSH1 0x1B SWAP1 DUP3 ADD MSTORE PUSH32 0x426F72696E674D6174683A2075696E743634204F766572666C6F770000000000 PUSH1 0x40 DUP3 ADD MSTORE PUSH1 0x60 ADD SWAP1 JUMP JUMPDEST PUSH1 0x20 DUP1 DUP3 MSTORE PUSH1 0x6 SWAP1 DUP3 ADD MSTORE PUSH32 0x4C4F434B45440000000000000000000000000000000000000000000000000000 PUSH1 0x40 DUP3 ADD MSTORE PUSH1 0x60 ADD SWAP1 JUMP JUMPDEST PUSH1 0x20 DUP1 DUP3 MSTORE PUSH1 0x18 SWAP1 DUP3 ADD MSTORE PUSH32 0x426F72696E674D6174683A204D756C204F766572666C6F770000000000000000 PUSH1 0x40 DUP3 ADD MSTORE PUSH1 0x60 ADD SWAP1 JUMP JUMPDEST DUP2 MLOAD PUSH1 0x1 PUSH1 0x1 PUSH1 0x80 SHL SUB AND DUP2 MSTORE PUSH1 0x20 DUP1 DUP4 ADD MLOAD PUSH8 0xFFFFFFFFFFFFFFFF SWAP1 DUP2 AND SWAP2 DUP4 ADD SWAP2 SWAP1 SWAP2 MSTORE PUSH1 0x40 SWAP3 DUP4 ADD MLOAD AND SWAP2 DUP2 ADD SWAP2 SWAP1 SWAP2 MSTORE PUSH1 0x60 ADD SWAP1 JUMP JUMPDEST PUSH1 0x1 PUSH1 0x1 PUSH1 0x80 SHL SUB SWAP4 SWAP1 SWAP4 AND DUP4 MSTORE PUSH8 0xFFFFFFFFFFFFFFFF SWAP2 DUP3 AND PUSH1 0x20 DUP5 ADD MSTORE AND PUSH1 0x40 DUP3 ADD MSTORE PUSH1 0x60 ADD SWAP1 JUMP JUMPDEST SWAP1 DUP2 MSTORE PUSH1 0x20 ADD SWAP1 JUMP JUMPDEST SWAP3 DUP4 MSTORE PUSH1 0x20 DUP4 ADD SWAP2 SWAP1 SWAP2 MSTORE PUSH1 0x40 DUP3 ADD MSTORE PUSH1 0x60 ADD SWAP1 JUMP JUMPDEST PUSH8 0xFFFFFFFFFFFFFFFF SWAP4 SWAP1 SWAP4 AND DUP4 MSTORE PUSH1 0x20 DUP4 ADD SWAP2 SWAP1 SWAP2 MSTORE PUSH1 0x1 PUSH1 0x1 PUSH1 0x80 SHL SUB AND PUSH1 0x40 DUP3 ADD MSTORE PUSH1 0x60 ADD SWAP1 JUMP JUMPDEST PUSH1 0x1 PUSH1 0x1 PUSH1 0xA0 SHL SUB DUP2 AND DUP2 EQ PUSH2 0x1B3B JUMPI PUSH1 0x0 DUP1 REVERT JUMPDEST POP JUMP JUMPDEST DUP1 ISZERO ISZERO DUP2 EQ PUSH2 0x1B3B JUMPI PUSH1 0x0 DUP1 REVERT INVALID LOG2 PUSH5 0x6970667358 0x22 SLT KECCAK256 PUSH16 0x740F7A50AA3E77061BFAFB66C0B26B2B PUSH10 0xA7D9D1C99C5A7E09E6AF PUSH23 0x692E7064736F6C634300060C0033000000000000000000 "
		},
		"gasEstimates": {
			"creation": {
				"codeDepositCost": "1408400",
				"executionCost": "infinite",
				"totalCost": "infinite"
			},
			"external": {
				"add(uint256,uint256)": "infinite",
				"claimOwnership()": "45078",
				"massUpdatePools(uint256[])": "infinite",
				"onSymmReward(uint256,address,address,uint256,uint256)": "infinite",
				"owner()": "1115",
				"pendingOwner()": "1136",
				"pendingToken(uint256,address)": "infinite",
				"pendingTokens(uint256,address,uint256)": "infinite",
				"poolIds(uint256)": "2042",
				"poolInfo(uint256)": "1387",
				"poolLength()": "1074",
				"reclaimTokens(address,uint256,address)": "infinite",
				"rewardPerSecond()": "1095",
				"rewardToken()": "infinite",
				"set(uint256,uint256)": "infinite",
				"setRewardPerSecond(uint256)": "22254",
				"transferOwnership(address,bool,bool)": "infinite",
				"updatePool(uint256)": "infinite",
				"userInfo(uint256,address)": "3116"
			}
		},
		"methodIdentifiers": {
			"add(uint256,uint256)": "771602f7",
			"claimOwnership()": "4e71e0c8",
			"massUpdatePools(uint256[])": "57a5b58c",
			"onSymmReward(uint256,address,address,uint256,uint256)": "ac9e6d92",
			"owner()": "8da5cb5b",
			"pendingOwner()": "e30c3978",
			"pendingToken(uint256,address)": "48e43af4",
			"pendingTokens(uint256,address,uint256)": "d63b3c49",
			"poolIds(uint256)": "69883b4e",
			"poolInfo(uint256)": "1526fe27",
			"poolLength()": "081e3eda",
			"reclaimTokens(address,uint256,address)": "c1ea3868",
			"rewardPerSecond()": "8f10369a",
			"rewardToken()": "f7c618c1",
			"set(uint256,uint256)": "1ab06ee5",
			"setRewardPerSecond(uint256)": "66da5815",
			"transferOwnership(address,bool,bool)": "078dfbe7",
			"updatePool(uint256)": "51eb05a6",
			"userInfo(uint256,address)": "93f1a40b"
		}
	},
	"abi": [
		{
			"inputs": [
				{
					"internalType": "contract IERC20",
					"name": "_rewardToken",
					"type": "address"
				},
				{
					"internalType": "uint256",
					"name": "_rewardPerSecond",
					"type": "uint256"
				},
				{
					"internalType": "address",
					"name": "_chef",
					"type": "address"
				}
			],
			"stateMutability": "nonpayable",
			"type": "constructor"
		},
		{
			"anonymous": false,
			"inputs": [],
			"name": "LogInit",
			"type": "event"
		},
		{
			"anonymous": false,
			"inputs": [
				{
					"indexed": true,
					"internalType": "address",
					"name": "user",
					"type": "address"
				},
				{
					"indexed": true,
					"internalType": "uint256",
					"name": "pid",
					"type": "uint256"
				},
				{
					"indexed": false,
					"internalType": "uint256",
					"name": "amount",
					"type": "uint256"
				},
				{
					"indexed": true,
					"internalType": "address",
					"name": "to",
					"type": "address"
				}
			],
			"name": "LogOnReward",
			"type": "event"
		},
		{
			"anonymous": false,
			"inputs": [
				{
					"indexed": true,
					"internalType": "uint256",
					"name": "pid",
					"type": "uint256"
				},
				{
					"indexed": false,
					"internalType": "uint256",
					"name": "allocPoint",
					"type": "uint256"
				}
			],
			"name": "LogPoolAddition",
			"type": "event"
		},
		{
			"anonymous": false,
			"inputs": [
				{
					"indexed": false,
					"internalType": "uint256",
					"name": "rewardPerSecond",
					"type": "uint256"
				}
			],
			"name": "LogRewardPerSecond",
			"type": "event"
		},
		{
			"anonymous": false,
			"inputs": [
				{
					"indexed": true,
					"internalType": "uint256",
					"name": "pid",
					"type": "uint256"
				},
				{
					"indexed": false,
					"internalType": "uint256",
					"name": "allocPoint",
					"type": "uint256"
				}
			],
			"name": "LogSetPool",
			"type": "event"
		},
		{
			"anonymous": false,
			"inputs": [
				{
					"indexed": true,
					"internalType": "uint256",
					"name": "pid",
					"type": "uint256"
				},
				{
					"indexed": false,
					"internalType": "uint64",
					"name": "lastRewardTime",
					"type": "uint64"
				},
				{
					"indexed": false,
					"internalType": "uint256",
					"name": "lpSupply",
					"type": "uint256"
				},
				{
					"indexed": false,
					"internalType": "uint256",
					"name": "accSymmPerShare",
					"type": "uint256"
				}
			],
			"name": "LogUpdatePool",
			"type": "event"
		},
		{
			"anonymous": false,
			"inputs": [
				{
					"indexed": true,
					"internalType": "address",
					"name": "previousOwner",
					"type": "address"
				},
				{
					"indexed": true,
					"internalType": "address",
					"name": "newOwner",
					"type": "address"
				}
			],
			"name": "OwnershipTransferred",
			"type": "event"
		},
		{
			"inputs": [
				{
					"internalType": "uint256",
					"name": "allocPoint",
					"type": "uint256"
				},
				{
					"internalType": "uint256",
					"name": "_pid",
					"type": "uint256"
				}
			],
			"name": "add",
			"outputs": [],
			"stateMutability": "nonpayable",
			"type": "function"
		},
		{
			"inputs": [],
			"name": "claimOwnership",
			"outputs": [],
			"stateMutability": "nonpayable",
			"type": "function"
		},
		{
			"inputs": [
				{
					"internalType": "uint256[]",
					"name": "pids",
					"type": "uint256[]"
				}
			],
			"name": "massUpdatePools",
			"outputs": [],
			"stateMutability": "nonpayable",
			"type": "function"
		},
		{
			"inputs": [
				{
					"internalType": "uint256",
					"name": "pid",
					"type": "uint256"
				},
				{
					"internalType": "address",
					"name": "_user",
					"type": "address"
				},
				{
					"internalType": "address",
					"name": "to",
					"type": "address"
				},
				{
					"internalType": "uint256",
					"name": "",
					"type": "uint256"
				},
				{
					"internalType": "uint256",
					"name": "lpToken",
					"type": "uint256"
				}
			],
			"name": "onSymmReward",
			"outputs": [],
			"stateMutability": "nonpayable",
			"type": "function"
		},
		{
			"inputs": [],
			"name": "owner",
			"outputs": [
				{
					"internalType": "address",
					"name": "",
					"type": "address"
				}
			],
			"stateMutability": "view",
			"type": "function"
		},
		{
			"inputs": [],
			"name": "pendingOwner",
			"outputs": [
				{
					"internalType": "address",
					"name": "",
					"type": "address"
				}
			],
			"stateMutability": "view",
			"type": "function"
		},
		{
			"inputs": [
				{
					"internalType": "uint256",
					"name": "_pid",
					"type": "uint256"
				},
				{
					"internalType": "address",
					"name": "_user",
					"type": "address"
				}
			],
			"name": "pendingToken",
			"outputs": [
				{
					"internalType": "uint256",
					"name": "pending",
					"type": "uint256"
				}
			],
			"stateMutability": "view",
			"type": "function"
		},
		{
			"inputs": [
				{
					"internalType": "uint256",
					"name": "pid",
					"type": "uint256"
				},
				{
					"internalType": "address",
					"name": "user",
					"type": "address"
				},
				{
					"internalType": "uint256",
					"name": "",
					"type": "uint256"
				}
			],
			"name": "pendingTokens",
			"outputs": [
				{
					"internalType": "contract IERC20[]",
					"name": "rewardTokens",
					"type": "address[]"
				},
				{
					"internalType": "uint256[]",
					"name": "rewardAmounts",
					"type": "uint256[]"
				}
			],
			"stateMutability": "view",
			"type": "function"
		},
		{
			"inputs": [
				{
					"internalType": "uint256",
					"name": "",
					"type": "uint256"
				}
			],
			"name": "poolIds",
			"outputs": [
				{
					"internalType": "uint256",
					"name": "",
					"type": "uint256"
				}
			],
			"stateMutability": "view",
			"type": "function"
		},
		{
			"inputs": [
				{
					"internalType": "uint256",
					"name": "",
					"type": "uint256"
				}
			],
			"name": "poolInfo",
			"outputs": [
				{
					"internalType": "uint128",
					"name": "accSymmPerShare",
					"type": "uint128"
				},
				{
					"internalType": "uint64",
					"name": "lastRewardTime",
					"type": "uint64"
				},
				{
					"internalType": "uint64",
					"name": "allocPoint",
					"type": "uint64"
				}
			],
			"stateMutability": "view",
			"type": "function"
		},
		{
			"inputs": [],
			"name": "poolLength",
			"outputs": [
				{
					"internalType": "uint256",
					"name": "pools",
					"type": "uint256"
				}
			],
			"stateMutability": "view",
			"type": "function"
		},
		{
			"inputs": [
				{
					"internalType": "address",
					"name": "token",
					"type": "address"
				},
				{
					"internalType": "uint256",
					"name": "amount",
					"type": "uint256"
				},
				{
					"internalType": "address payable",
					"name": "to",
					"type": "address"
				}
			],
			"name": "reclaimTokens",
			"outputs": [],
			"stateMutability": "nonpayable",
			"type": "function"
		},
		{
			"inputs": [],
			"name": "rewardPerSecond",
			"outputs": [
				{
					"internalType": "uint256",
					"name": "",
					"type": "uint256"
				}
			],
			"stateMutability": "view",
			"type": "function"
		},
		{
			"inputs": [],
			"name": "rewardToken",
			"outputs": [
				{
					"internalType": "contract IERC20",
					"name": "",
					"type": "address"
				}
			],
			"stateMutability": "view",
			"type": "function"
		},
		{
			"inputs": [
				{
					"internalType": "uint256",
					"name": "_pid",
					"type": "uint256"
				},
				{
					"internalType": "uint256",
					"name": "_allocPoint",
					"type": "uint256"
				}
			],
			"name": "set",
			"outputs": [],
			"stateMutability": "nonpayable",
			"type": "function"
		},
		{
			"inputs": [
				{
					"internalType": "uint256",
					"name": "_rewardPerSecond",
					"type": "uint256"
				}
			],
			"name": "setRewardPerSecond",
			"outputs": [],
			"stateMutability": "nonpayable",
			"type": "function"
		},
		{
			"inputs": [
				{
					"internalType": "address",
					"name": "newOwner",
					"type": "address"
				},
				{
					"internalType": "bool",
					"name": "direct",
					"type": "bool"
				},
				{
					"internalType": "bool",
					"name": "renounce",
					"type": "bool"
				}
			],
			"name": "transferOwnership",
			"outputs": [],
			"stateMutability": "nonpayable",
			"type": "function"
		},
		{
			"inputs": [
				{
					"internalType": "uint256",
					"name": "pid",
					"type": "uint256"
				}
			],
			"name": "updatePool",
			"outputs": [
				{
					"components": [
						{
							"internalType": "uint128",
							"name": "accSymmPerShare",
							"type": "uint128"
						},
						{
							"internalType": "uint64",
							"name": "lastRewardTime",
							"type": "uint64"
						},
						{
							"internalType": "uint64",
							"name": "allocPoint",
							"type": "uint64"
						}
					],
					"internalType": "struct ComplexRewarder.PoolInfo",
					"name": "pool",
					"type": "tuple"
				}
			],
			"stateMutability": "nonpayable",
			"type": "function"
		},
		{
			"inputs": [
				{
					"internalType": "uint256",
					"name": "",
					"type": "uint256"
				},
				{
					"internalType": "address",
					"name": "",
					"type": "address"
				}
			],
			"name": "userInfo",
			"outputs": [
				{
					"internalType": "uint256",
					"name": "amount",
					"type": "uint256"
				},
				{
					"internalType": "uint256",
					"name": "rewardDebt",
					"type": "uint256"
				},
				{
					"internalType": "uint256",
					"name": "unpaidRewards",
					"type": "uint256"
				}
			],
			"stateMutability": "view",
			"type": "function"
		}
	]
}